:020000040000FA
:04000000F8EF0EF017
:10060000003132333435363738392A3023456E7469
:1006100065722054656D703A004375723A253264F4
:1006200043005365743A2532644300001250800B36
:100630001F6E12501224266E11AE21EF03F023EF2D
:1006400003F024EF03F026802650D8B42AEF03F0FD
:100650002CEF03F041EF03F02628D8A432EF03F08B
:1006600034EF03F03CEF03F0000E0F6E000E106E3F
:10067000000E116E000E126E118E000E126E49EFFA
:1006800003F0000E0F6E000E106E000E116E000EC5
:10069000126E1650800B1F1A16501624276E15AEB8
:1006A00054EF03F056EF03F057EF03F02780275085
:1006B000D8B45DEF03F05FEF03F074EF03F0272889
:1006C000D8A465EF03F067EF03F06FEF03F0000EBF
:1006D000136E000E146E000E156E000E166E158E43
:1006E000000E166E7CEF03F0000E136E000E146EFB
:1006F000000E156E000E166E135014101510161005
:10070000D8A485EF03F087EF03F09FEF03F0000E0E
:100710000F6E000E106E000E116E000E126E800E27
:1007200011127F0E12121F5012120FC00FF010C0C4
:1007300010F011C011F012C012F0E2EF04F02650D8
:10074000D8A4A5EF03F0A7EF03F0B1EF03F0000E7C
:100750000F6E000E106E000E116E000E126EE2EFA4
:1007600004F0275026C017F0186A175E000E185ABA
:100770007F0E1724206E000E1820216E0FC01BF074
:1007800010C01CF011C01DF012C01EF0000E0F6E44
:10079000000E106E000E116E000E126E000E226E14
:1007A000000E236E000E246E000E256E000E276EC6
:1007B00012EF04F02750D8B4E0EF03F0E2EF03F0BB
:1007C000F9EF03F0D8901B361C361D361E36D89034
:1007D0000F3610361136123625AEF1EF03F0F3EF77
:1007E00003F0F4EF03F00F80D8902236233624363E
:1007F000253613501B5C14501C5815501D581650AC
:100800001E58D8A006EF04F008EF04F011EF04F032
:10081000258C13501B5E14501C5A15501D5A16502F
:100820001E5A272A190E276418EF04F01AEF04F055
:10083000DAEF03F01B501C101D101E10D8B423EF6C
:1008400004F025EF04F03DEF04F022803DEF04F0CA
:10085000D8900F3610361136123625AE32EF04F02E
:1008600034EF04F035EF04F00F80D89022362336B1
:10087000243625362006D8A0210611AE42EF04F01A
:1008800044EF04F028EF04F0000E276E25AE4BEF86
:1008900004F04DEF04F071EF04F0FF0E2214176E18
:1008A000FF0E2314186EFF0E2414196E7F0E2514EC
:1008B0001A6E1750181019101A10D8B462EF04F0FD
:1008C00064EF04F068EF04F0010E276E71EF04F09E
:1008D0000FA06DEF04F06FEF04F071EF04F064EF20
:1008E00004F02750D8B477EF04F079EF04F09DEFCF
:1008F00004F0010E0F26000E10221122122212A067
:1009000084EF04F086EF04F09DEF04F00FC017F0C1
:1009100010C018F011C019F012C01AF01A341A32AF
:1009200019321832173217C00FF018C010F019C062
:1009300011F01AC012F0204A212A21BEA8EF04F0BB
:10094000215008E12028D8A0A8EF04F0AAEF04F075
:10095000B5EF04F0000E216E2068000E0F6E000E41
:10096000106E000E116E000E126E21BEC2EF04F06A
:10097000215006E12004D8B0C0EF04F0C2EF04F02B
:10098000D0EF04F0000E216E000E206E000E0F6EF0
:10099000000E106E000E116E000E126E000E1F6E15
:1009A00020C026F026A0D7EF04F0D9EF04F0DCEF4A
:1009B00004F0118EDDEF04F0119ED8902630126EF7
:1009C00093EF03F012001EC036F01FC037F020C0B6
:1009D00038F021C039F022C03AF023C03BF024C0E7
:1009E0003CF025C03DF03DBEF8EF04F0FBEF04F015
:1009F000010EFCEF04F0000E346E356A34503510F1
:100A0000D8B405EF05F007EF05F017EF05F03D1E30
:100A10003C1E3B1E3A1E391E381E371E366C000E19
:100A20003722382239223A223B223C223D2274BE10
:100A30001CEF05F01EEF05F01FEF05F0759274BE78
:100A40002CEF05F0745006E17304D8B02AEF05F0DE
:100A50002CEF05F032EF05F0000E316E010E306E16
:100A600036EF05F073C030F074C031F071C032F071
:100A700072C033F034503510D8A441EF05F043EF85
:100A800005F04AEF05F075A448EF05F04AEF05F0D0
:100A90004DEF05F03206D8A03306000E3F6E1F0E54
:100AA0003E6E000E00019F6FD2EF05F03E06D8A00B
:100AB0003F06800E3E24D96E000E3F20DA6E36C00F
:100AC00001F037C002F038C003F039C004F03AC07A
:100AD00005F03BC006F03CC007F03DC008F00A0E30
:100AE000096E000E0A6E000E0B6E000E0C6E000EEC
:100AF0000D6E000E0E6E000E0F6E000E106EC7EC27
:100B00000AF001C026F002C027F003C028F004C09C
:100B100029F005C02AF006C02BF007C02CF008C051
:100B20002DF026C013F028C014F08EEC0EF01350F8
:100B3000300FDF6E3006D8A031063206D8A033065B
:100B400036C001F037C002F038C003F039C004F0FD
:100B50003AC005F03BC006F03CC007F03DC008F0CD
:100B60000A0E096E000E0A6E000E0B6E000E0C6E61
:100B7000000E0D6E000E0E6E000E0F6E000E106E4B
:100B80004BEC09F001C036F002C037F003C038F07A
:100B900004C039F005C03AF006C03BF007C03CF095
:100BA00008C03DF03FBEDDEF05F03F5008E13E04D8
:100BB000D8A0DDEF05F0DFEF05F00FEF06F03650BF
:100BC0003710381039103A103B103C103D10D8A4A3
:100BD000ECEF05F0EEEF05F056EF05F031BEFBEF60
:100BE00005F0315006E13004D8B0F9EF05F0FBEF25
:100BF00005F056EF05F033BE06EF06F0335008E17E
:100C00003204D8A006EF06F008EF06F00FEF06F06A
:100C100075B20DEF06F00FEF06F056EF05F0345009
:100C20003510D8A416EF06F018EF06F01FEF06F007
:100C300075A41DEF06F01FEF06F03DEF06F03E062F
:100C4000D8A03F0634503510D8A429EF06F02BEF7A
:100C500006F031EF06F0000E2F6E2B0E2E6E35EFE4
:100C600006F0000E2F6E2D0E2E6E800E3E24D96ED5
:100C7000000E3F20DA6E2EC0DFFF1CC011F01DC039
:100C800012F0800E3E24136E000E3F20146E32C010
:100C900015F033C016F0F0EC0CF011C01CF012C0CF
:100CA0001DF0120042C0D9FF43C0DAFFDECFF6FFCD
:100CB000DDCFF7FF0800F550250AD8A462EF06F053
:100CC00064EF06F08DEF07F042C0D9FF43C0DAFFB2
:100CD000DE2A000EDD22000E726E000E716E71C0F3
:100CE00075F072C076F07368746842C0D9FF43C073
:100CF000DAFFDECFF6FFDDCFF7FF0800F5502A0A56
:100D0000D8A485EF06F087EF06F0B0EF06F042C0FA
:100D1000D9FF43C0DAFFDE2A000EDD2244C0D9FF2E
:100D200045C0DAFFDFCF46F0020EDE26DFCF47F008
:100D3000000EDD2246C0D9FF47C0DAFFDECF71F0DA
:100D4000DDCF72F072BEA9EF06F0A7EF06F0F3EF69
:100D500006F07580716C721ED8B0722AF3EF06F03F
:100D600042C0D9FF43C0DAFFDECF08F0DDCF09F083
:100D700083EC08F008C071F009C072F0C7EF06F00C
:100D800042C0D9FF43C0DAFFDE2A000EDD22D00EBA
:100D9000466EFF0E476E42C0D9FF43C0DAFFDECF7A
:100DA000F6FFDDCFF7FF0800F550486E496A465060
:100DB00048264750492249500AE10A0E485CD8A00B
:100DC000E4EF06F0E7EF06F0010EE8EF06F0000EA4
:100DD000526E536A52505310D8A4F1EF06F0F3EF5D
:100DE00006F0C0EF06F042C0D9FF43C0DAFFDECF05
:100DF000F6FFDDCFF7FF0800F550640AD8B403EF23
:100E000007F005EF07F017EF07F042C0D9FF43C026
:100E1000DAFFDECFF6FFDDCFF7FF0800F550690AF5
:100E2000D8A415EF07F017EF07F057EF07F042C00F
:100E3000D9FF43C0DAFFDE2A000EDD2244C0D9FF0D
:100E400045C0DAFFDFCF46F0020EDE26DFCF47F0E7
:100E5000000EDD2246C0D9FF47C0DAFFDECF4AF0E0
:100E6000DDCF4BF0000E4BBEFF0E4C6E4D6E4E6E46
:100E70004F6E506E516E40C01CF041C01DF04AC014
:100E80001EF04BC01FF04CC020F04DC021F04EC0F2
:100E900022F04FC023F050C024F051C025F0E3EC05
:100EA00004F01CC040F01DC041F0A8EF07F042C0A4
:100EB000D9FF43C0DAFFDECFF6FFDDCFF7FF080032
:100EC000F550250AD8A467EF07F069EF07F080EF27
:100ED00007F042C0D9FF43C0DAFFDE2A000EDD2250
:100EE000000E026E250E016E40C003F041C004F0FA
:100EF0008BEC0CF0000E416E010E406EA8EF07F077
:100F000042C0D9FF43C0DAFFDE2A000EDD22000E08
:100F1000416E000E406EA8EF07F042C0D9FF43C0FB
:100F2000DAFFDECFF6FFDDCFF7FF0800F550016EE8
:100F3000026A40C003F041C004F08BEC0CF042C0E8
:100F4000D9FF43C0DAFFDE2A000EDD227AEF07F078
:100F50001200096E0950D8B4B0EF07F0B2EF07F0F5
:100F6000D4EF07F004BEB9EF07F0B7EF07F0D4EF06
:100F700007F001C005F002C006F003C007F004C08E
:100F800008F0051E061E071E081E052A000E062272
:100F90000722082205C00BF006C00CF007C00DF0B8
:100FA00008C00EF0DCEF07F001C00BF002C00CF03F
:100FB00003C00DF004C00EF0015002100310041025
:100FC000D8A4E5EF07F0E7EF07F0F1EF07F0000E28
:100FD000016E000E026E000E036E000E046E82EFB4
:100FE00008F0960E0A6EFBEF07F00A2AD8900E3230
:100FF0000D320C320B32000E0B14056E000E0C1469
:10100000066E000E0D14076EFE0E0E14086E0550CF
:10101000061007100810D8A410EF08F012EF08F01F
:10102000F5EF07F020EF08F00A2A010E0B26000E5C
:101030000C220D220E22D8900E320D320C320B32C1
:10104000000E0B14056E000E0C14066E000E0D142F
:10105000076EFF0E0E14086E0550061007100810DC
:10106000D8A435EF08F037EF08F014EF08F03FEFA1
:1010700008F00A06D8900B360C360D360E360DBE2B
:1010800044EF08F046EF08F04EEF08F0020E0A6059
:101090004CEF08F04EEF08F039EF08F00AB053EFCC
:1010A00008F055EF08F056EF08F00D9ED8900A3280
:1010B0000AC005F0066A076A086A05C008F0076AF0
:1010C000066A056A05500B1206500C1207500D12E5
:1010D00008500E120950D8B470EF08F072EF08F003
:1010E0007AEF08F004BE79EF08F077EF08F07AEFB6
:1010F00008F00E8E0BC001F00CC002F00DC003F022
:101100000EC004F01200000E166E000E156E000EDA
:101110000F6E000E0E6E8FEF08F0084A092A010EBE
:10112000146E08C0F6FF09C0F7FF0800F550200A4A
:10113000D8B49DEF08F09FEF08F0BCEF08F0F70E71
:101140000A6EFF0E0B6E08C0F6FF09C0F7FF08001D
:10115000F5500C6E0D6A0A500C260B500D220D50E6
:1011600009E1050E0C5CD8A0B8EF08F0BAEF08F062
:10117000BCEF08F0000E146E14C010F0116A10508D
:101180001110D8A4C6EF08F0C8EF08F08DEF08F0F2
:10119000D2EF08F0000E0F6E010E0E6E084A092AFB
:1011A00007EF09F008C0F6FF09C0F7FF0800F55087
:1011B0000A6E0B6A0B50000AD8B4E1EF08F007EF93
:1011C00009F00A502B0AD8B4CEEF08F0060AD8B4BA
:1011D000CAEF08F007EF09F015C001F016C002F0E1
:1011E000000E046E0A0E036EE5EC0EF008C0F6FF6A
:1011F00009C0F7FF0800F550015E000E025A300EDC
:101200000124156E000E0220166ECEEF08F0D00EEF
:101210000A6EFF0E0B6E08C0F6FF09C0F7FF08004C
:10122000F5500C6E0D6A0A500C260B500D220D5015
:101230000AE10A0E0C5CD8A020EF09F023EF09F0B8
:10124000010E24EF09F0000E126E136A12501310F3
:10125000D8A42DEF09F02FEF09F0ECEF08F00E50B5
:101260000F10D8A436EF09F038EF09F046EF09F077
:1012700015C00AF016C00BF00A1E0B1E0A4A0B2AF4
:101280000AC008F00BC009F04AEF09F015C008F0D9
:1012900016C009F01200000E126E10BE54EF09F0D5
:1012A00052EF09F066EF09F0101E0F1E0E1E0D1E04
:1012B0000C1E0B1E0A1E096C000E0A220B220C22A9
:1012C0000D220E220F221022010E126E08BE6DEFAB
:1012D00009F06BEF09F07FEF09F0081E071E061EEC
:1012E000051E041E031E021E016C000E02220322B4
:1012F00004220522062207220822010E121A20EEDD
:1013000013F0070EDE6AE806FDE209500A100B1022
:101310000C100D100E100F101010D8B492EF09F031
:1013200094EF09F0E6EF09F0010E116EA2EF09F05B
:10133000D89009360A360B360C360D360E360F3677
:101340001036112A10AEA7EF09F0A9EF09F098EFB7
:1013500009F0D89013361436153616361736183667
:1013600019361A360950015C0A5002580B500358BE
:101370000C5004580D5005580E5006580F50075881
:1013800010500858D8A0C7EF09F0C9EF09F0DAEFFC
:1013900009F00950015E0A50025A0B50035A0C50D2
:1013A000045A0D50055A0E50065A0F50075A105045
:1013B000085A1380D89010320F320E320D320C3290
:1013C0000B320A320932112EA9EF09F01250D8B4AB
:1013D000ECEF09F0EEEF09F0FEEF09F01A1E191E0E
:1013E000181E171E161E151E141E136C000E142236
:1013F000152216221722182219221A2213C001F0D0
:1014000014C002F015C003F016C004F017C005F0B8
:1014100018C006F019C007F01AC008F012006F0ECD
:10142000D36E010EC26E0E0EC16EA40EC06E9280FF
:10143000F00E936E000E946E000E956E0D0E6C6E97
:10144000FC0EE82EFED76C2EFCD78EEC0DF00D0EA8
:10145000026E060E036EEDEC0DF0C00E09EC0FF0FF
:10146000000E7A6E000E796E79EC0BF06E6E2F0E18
:101470006E643DEF0AF03FEF0AF05EEF0AF03A0EBD
:101480006E6045EF0AF047EF0AF05EEF0AF079C0B0
:1014900001F07AC002F0000E046E0A0E036EE5EC55
:1014A0000EF06E500126000E0222D00E0124796E3D
:1014B000FF0E02207A6E6E5014EC0FF0230E6E18A1
:1014C000D8A465EF0AF067EF0AF034EF0AF0060ED1
:1014D0006D6E130E6C6EAE0EE82EFED76C2EFCD722
:1014E0006D2EFAD7010E09EC0FF051EC0DF032C061
:1014F00077F033C078F0800E09EC0FF0A00E5C6E30
:10150000000E5D6E190E5E6E060E5F6E77C060F0A7
:1015100078C061F045EC0EF0A00E026E000E036E76
:10152000EDEC0DF0C00E09EC0FF0A00E5C6E000E9D
:101530005D6E220E5E6E060E5F6E79C060F07AC040
:1015400061F045EC0EF0A00E026E000E036EEDECA5
:101550000DF07950775C7A507858D8B0B2EF0AF035
:10156000B4EF0AF0B7EF0AF08280B8EF0AF0829089
:10157000030E6D6E8A0E6C6E560EE82EFED76C2E24
:10158000FCD76D2EFAD775EF0AF000EF00F0000ED1
:10159000126E08BED0EF0AF0CEEF0AF0E2EF0AF0CA
:1015A000081E071E061E051E041E031E021E016CD9
:1015B000000E02220322042205220622072208220C
:1015C000010E126E10BEE9EF0AF0E7EF0AF0F9EF34
:1015D0000AF0101E0F1E0E1E0D1E0C1E0B1E0A1EE4
:1015E000096C000E0A220B220C220D220E220F2261
:1015F000102209500A100B100C100D100E100F10B5
:101600001010D8B406EF0BF008EF0BF050EF0BF012
:10161000010E116E16EF0BF0D89009360A360B3614
:101620000C360D360E360F361036112A10AE1BEF63
:101630000BF01DEF0BF00CEF0BF00950015C0A50A2
:1016400002580B5003580C5004580D5005580E50BA
:1016500006580F50075810500858D8A032EF0BF01A
:1016600034EF0BF044EF0BF00950015E0A50025AC0
:101670000B50035A0C50045A0D50055A0E50065A7E
:101680000F50075A1050085AD89010320F320E32AD
:101690000D320C320B320A320932112E1DEF0BF0D3
:1016A0001250D8B456EF0BF058EF0BF068EF0BF078
:1016B000081E071E061E051E041E031E021E016CC8
:1016C000000E0222032204220522062207220822FB
:1016D00001C001F002C002F003C003F004C004F036
:1016E00005C005F006C006F007C007F008C008F006
:1016F0001200010EF66E060EF76E20EE09F00B0ECC
:101700000900F5CFDEFFE806FBE2000E166E000EC4
:10171000156E16BE95EF0BF0165009E1030E155C21
:10172000D8A095EF0BF097EF0BF099EF0BF006EFC9
:101730000CF015C007F0010E086E072AA2EF0BF09F
:10174000D8900836072EA0EF0BF00850FF0A816EE4
:10175000030E076E980EE82EFED7072EFCD7000E5C
:10176000186E000E176E17C007F0040E0726010E44
:10177000086E072ABEEF0BF0D8900836072EBCEF94
:101780000BF0085081140009D8A4C9EF0BF0CBEF7F
:101790000BF0F2EF0BF0020E086E040E076EBA0E9D
:1017A000E82EFED7072EFCD7082EFAD700D017C098
:1017B00001F018C002F0000E046E030E036EE5EC9B
:1017C0000EF0090E076E000E086E0150072602503B
:1017D000082215500724D96E16500820DA6EDF5003
:1017E00007EF0CF0174A182A18BE00EF0CF018503B
:1017F00009E1040E175CD8A000EF0CF002EF0CF02A
:10180000B3EF0BF0154A162A89EF0BF0000E120009
:101810002A342B34316E3150D8A411EF0CF013EF71
:101820000CF01DEF0CF0000E286E000E296E000E5D
:101830002A6E000E2B6E8AEF0CF028C02CF029C007
:101840002DF02AC02EF02BC02FF0200E2DEF0CF023
:10185000D8902F322E322D322C32E82E28EF0CF079
:101860002C50306E2A8EFF0E2816FF0E2916FF0E02
:101870002A16000E2B16960E315E31BE44EF0CF088
:1018800042EF0CF05AEF0CF03150800A970FD8B0AD
:101890004CEF0CF04EEF0CF050EF0CF013EF0CF09F
:1018A000D8902B322A3229322832313E50EF0CF0B8
:1018B00072EF0CF01F0E316460EF0CF062EF0CF071
:1018C0006AEF0CF013EF0CF0D890283629362A3640
:1018D0002B3631063150D8A470EF0CF072EF0CF0BB
:1018E00064EF0CF03050D8B478EF0CF07AEF0CF0D5
:1018F00082EF0CF02B1E2A1E291E286C000E2922B6
:101900002A222B2228C028F029C029F02AC02AF038
:101910002BC02BF0120003500410D8B492EF0CF03F
:1019200094EF0CF09DEF0CF003500410D8A49BEF43
:101930000CF09DEF0CF0A2EF0CF001501FEC0FF03B
:10194000EFEF0CF020EE04F00350D9260450DA2219
:10195000DE50DE10D8B4AFEF0CF0B1EF0CF0CCEFEE
:101960000CF020EE04F00350D9260450DA2210EED9
:1019700002F00350E1260450E222DE50E65CE6501D
:10198000800A096EDE50800A0958D8B0CAEF0CF000
:10199000CCEF0CF0EFEF0CF020EE02F00350D92664
:1019A0000450DA22DECF05F0DDCF06F003C0D9FF08
:1019B00004C0DAFFDECF07F0DDCF08F005500724C2
:1019C000D96E06500820DA6E01C0DFFF20EE02F06B
:1019D0000350D9260450DA22DE2A000EDD2212003E
:1019E00075A0F5EF0CF0F7EF0CF001EF0DF013C060
:1019F0000AF014C00BF011C00CF012C00DF06CEC2A
:101A00000EF016BE06EF0DF008EF0DF00EEF0DF024
:101A100015C01AF016C01BF012EF0DF0000E1B6E71
:101A2000000E1A6E000E196E000E186E24EF0DF0E7
:101A3000000E026E200E016E11C003F012C004F001
:101A40008BEC0CF0184A192A1A50185C1950800AAD
:101A5000176E1B50800A1758D8A031EF0DF033EFE6
:101A60000DF018EF0DF075B038EF0DF03AEF0DF006
:101A700044EF0DF013C00AF014C00BF011C00CF0CD
:101A800012C00DF06CEC0EF013C001F014C002F0A7
:101A9000CAEC0EF01A500124116E1B500220126E77
:101AA0001200010EC26EC282C2B259EF0DF05BEF9E
:101AB0000DF054EF0DF0C4CF36F0376A3650346E67
:101AC000C350366E34C037F05C0E136E8F0E146E3A
:101AD000020E156E400E166E36C001F037C002F0D1
:101AE000036A046A000EA9EC07F001C00FF002C0FF
:101AF00010F003C011F004C012F016EC03F00FC098
:101B000028F010C029F011C02AF012C02BF008EC08
:101B10000CF028C032F029C033F01200010E09EC9D
:101B20000FF01A0E026EF80EE82EFED7022EFCD72A
:101B300000D0380E09EC0FF0070E026E7D0EE82E75
:101B4000FED7022EFCD700F00C0E09EC0FF0070EAA
:101B5000026E7D0EE82EFED7022EFCD700F0060E98
:101B600009EC0FF0070E026E7D0EE82EFED7022E56
:101B7000FCD700F0800E09EC0FF0120056C05AF0AE
:101B800057C05BF0000E706E000E6F6EDAEF0DF056
:101B900054C040F055C041F05A0E426E000E436EE4
:101BA00058C044F059C045F052EC06F040506F2642
:101BB000415070225AC0F6FF5BC0F7FF0800F55095
:101BC0000009D8A4E6EF0DF0E8EF0DF0C8EF0DF036
:101BD0006FC054F070C055F0120003EF0EF002C059
:101BE000F6FF03C0F7FFF86A050EF76403D008009C
:101BF000F55005D0F6CFE1FFF7CFE2FFE75014EC48
:101C00000FF0024A032A02C0F6FF03C0F7FFF86A8A
:101C1000050EF76403D00800F55005D0F6CFE1FFBC
:101C2000F7CFE2FFE7500009D8A419EF0EF01BEF41
:101C30000EF0EFEF0DF01200010E076E200E0118EE
:101C40000210D8B426EF0EF028EF0EF041EF0EF0A0
:101C5000F70E036EFF0E046E01C005F002C006F021
:101C60000350052604500622065009E1050E055CC6
:101C7000D8A03DEF0EF03FEF0EF041EF0EF0000E5A
:101C8000076E07C001F0026A1200600E646E000E5B
:101C9000656E5CC066F05DC067F0000E696E000E98
:101CA000686E000E6B6E000E6A6E660E546E000E4D
:101CB000556E5EC056F05FC057F0640E586E000E51
:101CC000596EBEEC0DF068505C24D96E69505D20F1
:101CD000DA6E000EDF6E1200000E106E000E0F6E38
:101CE0007DEF0EF00EC001F0026A0CC003F00DC0D3
:101CF00004F08BEC0CF00F4A102A0F500A24D96E16
:101D000010500B20DA6EDF500E6E0E50D8A48BEF01
:101D10000EF08DEF0EF072EF0EF0120014BE9BEF7E
:101D20000EF0145006E11304D8B099EF0EF09BEFBB
:101D30000EF0A9EF0EF013C015F014C016F0151E2A
:101D4000161E154A162A15C013F016C014F0ADEF72
:101D50000EF013C013F014C014F01200D00E036E76
:101D6000FF0E046E01C005F002C006F00350052608
:101D70000450062206500AE10A0E055CD8A0C3EF03
:101D80000EF0C6EF0EF0010EC7EF0EF0000E016E62
:101D9000026A120001C003F002C004F0D2EF0EF09C
:101DA000014A022A01C0D9FF02C0DAFFDF50D8A4DD
:101DB000DCEF0EF0DEEF0EF0D0EF0EF00350015C22
:101DC000016E04500258026E120001500302F3CF5C
:101DD00005F0F4CF06F001500402F350062602503D
:101DE0000302F350062605C001F006C002F01200FF
:101DF00000EE80F0300EEE6AE806FDE100EE6FF0D6
:101E0000100EEE6AE806FDE1000EF86E00010FEF1D
:101E10000AF0016E01C083FF82928284C80E00D056
:101E2000E82EFDD782941200016E01C083FF8282EA
:101E30008284C80E00D0E82EFDD7829412001200D2
:020000040020DA
:08000000FFFFFFFFFFFFFFFF00
:020000040030CA
:0E000000FF08181EFF8181FF0FC00FE00F40A8
:00000001FF
